{
  "_format": "hh-sol-artifact-1",
  "contractName": "Traceability",
  "sourceName": "blockchain/Traceability.sol",
  "abi": [
    {
      "inputs": [],
      "stateMutability": "nonpayable",
      "type": "constructor"
    },
    {
      "inputs": [
        {
          "internalType": "string",
          "name": "maTruyXuat",
          "type": "string"
        },
        {
          "internalType": "string",
          "name": "action",
          "type": "string"
        },
        {
          "internalType": "string",
          "name": "location",
          "type": "string"
        }
      ],
      "name": "addTraceRecord",
      "outputs": [],
      "stateMutability": "nonpayable",
      "type": "function"
    },
    {
      "inputs": [
        {
          "internalType": "string",
          "name": "maTruyXuat",
          "type": "string"
        },
        {
          "internalType": "uint256",
          "name": "index",
          "type": "uint256"
        }
      ],
      "name": "getRecord",
      "outputs": [
        {
          "internalType": "string",
          "name": "",
          "type": "string"
        },
        {
          "internalType": "string",
          "name": "",
          "type": "string"
        },
        {
          "internalType": "uint256",
          "name": "",
          "type": "uint256"
        }
      ],
      "stateMutability": "view",
      "type": "function"
    },
    {
      "inputs": [
        {
          "internalType": "string",
          "name": "maTruyXuat",
          "type": "string"
        }
      ],
      "name": "getTraceCount",
      "outputs": [
        {
          "internalType": "uint256",
          "name": "",
          "type": "uint256"
        }
      ],
      "stateMutability": "view",
      "type": "function"
    },
    {
      "inputs": [],
      "name": "owner",
      "outputs": [
        {
          "internalType": "address",
          "name": "",
          "type": "address"
        }
      ],
      "stateMutability": "view",
      "type": "function"
    }
  ],
  "bytecode": "0x608060405234801561001057600080fd5b50336000806101000a81548173ffffffffffffffffffffffffffffffffffffffff021916908373ffffffffffffffffffffffffffffffffffffffff160217905550610d23806100606000396000f3fe608060405234801561001057600080fd5b506004361061004c5760003560e01c8063798ac358146100515780638da5cb5b14610081578063a1c1abf91461009f578063bc60f6a1146100bb575b600080fd5b61006b600480360381019061006691906105c3565b6100ed565b6040516100789190610625565b60405180910390f35b610089610118565b6040516100969190610681565b60405180910390f35b6100b960048036038101906100b4919061069c565b61013c565b005b6100d560048036038101906100d0919061076f565b610269565b6040516100e49392919061084a565b60405180910390f35b60006001826040516100ff91906108cb565b9081526020016040518091039020805490509050919050565b60008054906101000a900473ffffffffffffffffffffffffffffffffffffffff1681565b60008054906101000a900473ffffffffffffffffffffffffffffffffffffffff1673ffffffffffffffffffffffffffffffffffffffff163373ffffffffffffffffffffffffffffffffffffffff16146101ca576040517f08c379a00000000000000000000000000000000000000000000000000000000081526004016101c190610954565b60405180910390fd5b6001836040516101da91906108cb565b9081526020016040518091039020604051806060016040528084815260200183815260200142815250908060018154018082558091505060019003906000526020600020906003020160009091909190915060008201518160000190816102419190610b80565b5060208201518160010190816102579190610b80565b50604082015181600201555050505050565b606080600060018560405161027e91906108cb565b90815260200160405180910390208054905084106102d1576040517f08c379a00000000000000000000000000000000000000000000000000000000081526004016102c890610c9e565b60405180910390fd5b60006001866040516102e391906108cb565b9081526020016040518091039020858154811061030357610302610cbe565b5b906000526020600020906003020160405180606001604052908160008201805461032c906109a3565b80601f0160208091040260200160405190810160405280929190818152602001828054610358906109a3565b80156103a55780601f1061037a576101008083540402835291602001916103a5565b820191906000526020600020905b81548152906001019060200180831161038857829003601f168201915b505050505081526020016001820180546103be906109a3565b80601f01602080910402602001604051908101604052809291908181526020018280546103ea906109a3565b80156104375780601f1061040c57610100808354040283529160200191610437565b820191906000526020600020905b81548152906001019060200180831161041a57829003601f168201915b505050505081526020016002820154815250509050806000015181602001518260400151935093509350509250925092565b6000604051905090565b600080fd5b600080fd5b600080fd5b600080fd5b6000601f19601f8301169050919050565b7f4e487b7100000000000000000000000000000000000000000000000000000000600052604160045260246000fd5b6104d082610487565b810181811067ffffffffffffffff821117156104ef576104ee610498565b5b80604052505050565b6000610502610469565b905061050e82826104c7565b919050565b600067ffffffffffffffff82111561052e5761052d610498565b5b61053782610487565b9050602081019050919050565b82818337600083830152505050565b600061056661056184610513565b6104f8565b90508281526020810184848401111561058257610581610482565b5b61058d848285610544565b509392505050565b600082601f8301126105aa576105a961047d565b5b81356105ba848260208601610553565b91505092915050565b6000602082840312156105d9576105d8610473565b5b600082013567ffffffffffffffff8111156105f7576105f6610478565b5b61060384828501610595565b91505092915050565b6000819050919050565b61061f8161060c565b82525050565b600060208201905061063a6000830184610616565b92915050565b600073ffffffffffffffffffffffffffffffffffffffff82169050919050565b600061066b82610640565b9050919050565b61067b81610660565b82525050565b60006020820190506106966000830184610672565b92915050565b6000806000606084860312156106b5576106b4610473565b5b600084013567ffffffffffffffff8111156106d3576106d2610478565b5b6106df86828701610595565b935050602084013567ffffffffffffffff811115610700576106ff610478565b5b61070c86828701610595565b925050604084013567ffffffffffffffff81111561072d5761072c610478565b5b61073986828701610595565b9150509250925092565b61074c8161060c565b811461075757600080fd5b50565b60008135905061076981610743565b92915050565b6000806040838503121561078657610785610473565b5b600083013567ffffffffffffffff8111156107a4576107a3610478565b5b6107b085828601610595565b92505060206107c18582860161075a565b9150509250929050565b600081519050919050565b600082825260208201905092915050565b60005b838110156108055780820151818401526020810190506107ea565b60008484015250505050565b600061081c826107cb565b61082681856107d6565b93506108368185602086016107e7565b61083f81610487565b840191505092915050565b600060608201905081810360008301526108648186610811565b905081810360208301526108788185610811565b90506108876040830184610616565b949350505050565b600081905092915050565b60006108a5826107cb565b6108af818561088f565b93506108bf8185602086016107e7565b80840191505092915050565b60006108d7828461089a565b915081905092915050565b7f4f6e6c79206f776e65722063616e20706572666f726d2074686973206163746960008201527f6f6e000000000000000000000000000000000000000000000000000000000000602082015250565b600061093e6022836107d6565b9150610949826108e2565b604082019050919050565b6000602082019050818103600083015261096d81610931565b9050919050565b7f4e487b7100000000000000000000000000000000000000000000000000000000600052602260045260246000fd5b600060028204905060018216806109bb57607f821691505b6020821081036109ce576109cd610974565b5b50919050565b60008190508160005260206000209050919050565b60006020601f8301049050919050565b600082821b905092915050565b600060088302610a367fffffffffffffffffffffffffffffffffffffffffffffffffffffffffffffffff826109f9565b610a4086836109f9565b95508019841693508086168417925050509392505050565b6000819050919050565b6000610a7d610a78610a738461060c565b610a58565b61060c565b9050919050565b6000819050919050565b610a9783610a62565b610aab610aa382610a84565b848454610a06565b825550505050565b600090565b610ac0610ab3565b610acb818484610a8e565b505050565b5b81811015610aef57610ae4600082610ab8565b600181019050610ad1565b5050565b601f821115610b3457610b05816109d4565b610b0e846109e9565b81016020851015610b1d578190505b610b31610b29856109e9565b830182610ad0565b50505b505050565b600082821c905092915050565b6000610b5760001984600802610b39565b1980831691505092915050565b6000610b708383610b46565b9150826002028217905092915050565b610b89826107cb565b67ffffffffffffffff811115610ba257610ba1610498565b5b610bac82546109a3565b610bb7828285610af3565b600060209050601f831160018114610bea5760008415610bd8578287015190505b610be28582610b64565b865550610c4a565b601f198416610bf8866109d4565b60005b82811015610c2057848901518255600182019150602085019450602081019050610bfb565b86831015610c3d5784890151610c39601f891682610b46565b8355505b6001600288020188555050505b505050505050565b7f496e646578206f7574206f6620626f756e647300000000000000000000000000600082015250565b6000610c886013836107d6565b9150610c9382610c52565b602082019050919050565b60006020820190508181036000830152610cb781610c7b565b9050919050565b7f4e487b7100000000000000000000000000000000000000000000000000000000600052603260045260246000fdfea264697066735822122017494b69b5a230676fe6ed7704060d51399e43fc92d872a04d414699aa600e4a64736f6c63430008140033",
  "linkReferences": {},
  "deployedLinkReferences": {}
}